{
  "contractName": "Election",
  "abi": [
    {
      "constant": true,
      "inputs": [],
      "name": "candidatesCount",
      "outputs": [
        {
          "name": "",
          "type": "uint256"
        }
      ],
      "payable": false,
      "stateMutability": "view",
      "type": "function"
    },
    {
      "constant": true,
      "inputs": [
        {
          "name": "",
          "type": "uint256"
        }
      ],
      "name": "candidates",
      "outputs": [
        {
          "name": "id",
          "type": "uint256"
        },
        {
          "name": "name",
          "type": "string"
        },
        {
          "name": "voteCount",
          "type": "uint256"
        },
        {
          "name": "totalVoteCount",
          "type": "uint256"
        }
      ],
      "payable": false,
      "stateMutability": "view",
      "type": "function"
    },
    {
      "constant": true,
      "inputs": [],
      "name": "totalVoteCount",
      "outputs": [
        {
          "name": "",
          "type": "uint256"
        }
      ],
      "payable": false,
      "stateMutability": "view",
      "type": "function"
    },
    {
      "constant": true,
      "inputs": [
        {
          "name": "",
          "type": "address"
        }
      ],
      "name": "voters",
      "outputs": [
        {
          "name": "",
          "type": "bool"
        }
      ],
      "payable": false,
      "stateMutability": "view",
      "type": "function"
    },
    {
      "inputs": [],
      "payable": false,
      "stateMutability": "nonpayable",
      "type": "constructor"
    },
    {
      "anonymous": false,
      "inputs": [
        {
          "indexed": true,
          "name": "_candidateId",
          "type": "uint256"
        }
      ],
      "name": "votedEvent",
      "type": "event"
    },
    {
      "constant": false,
      "inputs": [
        {
          "name": "_candidateId",
          "type": "uint256"
        }
      ],
      "name": "vote",
      "outputs": [],
      "payable": false,
      "stateMutability": "nonpayable",
      "type": "function"
    }
  ],
  "bytecode": "0x608060405234801561001057600080fd5b5061005e6040805190810160405280601c81526020017f48696c6c61727920436c696e746f6e202d2044656d6f6372617469630000000081525061014a640100000000026401000000009004565b6100ab6040805190810160405280601981526020017f446f6e616c64205472756d70202d2052657075626c6963616e0000000000000081525061014a640100000000026401000000009004565b6100f86040805190810160405280601281526020017f4a696c6c20537465696e202d20477265656e000000000000000000000000000081525061014a640100000000026401000000009004565b6101456040805190810160405280601a81526020017f47617279204a6f686e736f6e202d204c6962657274617269616e00000000000081525061014a640100000000026401000000009004565b61027c565b600160008154809291906001019190505550608060405190810160405280600154815260200182815260200160008152602001600081525060008060015481526020019081526020016000206000820151816000015560208201518160010190805190602001906101bc9291906101d7565b50604082015181600201556060820151816003015590505050565b828054600181600116156101000203166002900490600052602060002090601f016020900481019282601f1061021857805160ff1916838001178555610246565b82800160010185558215610246579182015b8281111561024557825182559160200191906001019061022a565b5b5090506102539190610257565b5090565b61027991905b8082111561027557600081600090555060010161025d565b5090565b90565b61049a8061028b6000396000f30060806040526004361061006d576000357c0100000000000000000000000000000000000000000000000000000000900463ffffffff1680630121b93f146100725780632d35a8a21461009f5780633477ee2e146100ca578063893d8f4c14610185578063a3ec138d146101b0575b600080fd5b34801561007e57600080fd5b5061009d6004803603810190808035906020019092919050505061020b565b005b3480156100ab57600080fd5b506100b461037a565b6040518082815260200191505060405180910390f35b3480156100d657600080fd5b506100f560048036038101908080359060200190929190505050610380565b6040518085815260200180602001848152602001838152602001828103825285818151815260200191508051906020019080838360005b8381101561014757808201518184015260208101905061012c565b50505050905090810190601f1680156101745780820380516001836020036101000a031916815260200191505b509550505050505060405180910390f35b34801561019157600080fd5b5061019a610448565b6040518082815260200191505060405180910390f35b3480156101bc57600080fd5b506101f1600480360381019080803573ffffffffffffffffffffffffffffffffffffffff16906020019092919050505061044e565b604051808215151515815260200191505060405180910390f35b6000600360003373ffffffffffffffffffffffffffffffffffffffff1673ffffffffffffffffffffffffffffffffffffffff16815260200190815260200160002060009054906101000a900460ff1615151561026657600080fd5b60008211801561027857506001548211155b151561028357600080fd5b6001600360003373ffffffffffffffffffffffffffffffffffffffff1673ffffffffffffffffffffffffffffffffffffffff16815260200190815260200160002060006101000a81548160ff02191690831515021790555060008083815260200190815260200160002060020160008154809291906001019190505550600260008154809291906001019190505550600190505b600154811115156103495760025460008083815260200190815260200160002060030181905550806001019050610317565b817ffff3c900d938d21d0990d786e819f29b8d05c1ef587b462b939609625b684b1660405160405180910390a25050565b60015481565b6000602052806000526040600020600091509050806000015490806001018054600181600116156101000203166002900480601f0160208091040260200160405190810160405280929190818152602001828054600181600116156101000203166002900480156104325780601f1061040757610100808354040283529160200191610432565b820191906000526020600020905b81548152906001019060200180831161041557829003601f168201915b5050505050908060020154908060030154905084565b60025481565b60036020528060005260406000206000915054906101000a900460ff16815600a165627a7a72305820e661fde896644af6a5f0bc265ff3ac66957a1a1a2f483b11c63572738e82e1360029",
  "source": "// SPDX-License-Identifier: MIT\r\npragma solidity ^0.4.2;\r\n\r\ncontract Election {\r\n    struct Candidate {\r\n        uint id;\r\n        string name;\r\n        uint voteCount;\r\n        uint totalVoteCount;\r\n    }\r\n\r\n    mapping (uint => Candidate) public candidates;\r\n\r\n    uint public candidatesCount;\r\n\r\n    uint public totalVoteCount;\r\n\r\n    mapping (address => bool) public voters;\r\n\r\n    event votedEvent (\r\n        uint indexed _candidateId\r\n    );\r\n\r\n    function addCandidate (string _name) private {\r\n        candidatesCount++;\r\n        candidates[candidatesCount] = Candidate (candidatesCount, _name, 0, 0);\r\n    }\r\n\r\n    function vote (uint _candidateId) public {\r\n        require (!voters[msg.sender]);\r\n        require(_candidateId > 0 && _candidateId <= candidatesCount);\r\n\r\n        voters[msg.sender] = true;\r\n        candidates[_candidateId].voteCount++;\r\n        totalVoteCount++;\r\n        for (uint i = 1; i <= candidatesCount; ++i) {\r\n            candidates[i].totalVoteCount = totalVoteCount;\r\n        }\r\n        emit votedEvent(_candidateId);\r\n    }\r\n\r\n    constructor () public {\r\n        addCandidate(\"Hillary Clinton - Democratic\");\r\n        addCandidate(\"Donald Trump - Republican\");\r\n        addCandidate(\"Jill Stein - Green\");\r\n        addCandidate(\"Gary Johnson - Libertarian\");\r\n    }\r\n}",
  "sourcePath": "C:\\Users\\Richard\\election\\contracts\\Election.sol",
  "compiler": {
    "name": "solc",
    "version": "0.4.24+commit.e67f0147.Emscripten.clang"
  },
  "schemaVersion": "2.0.1",
  "updatedAt": "2020-10-22T03:31:28.986Z"
}